{
  "transactions": [
    {
      "hash": "0x97238c3525f2dc756ebc24fff6275f067c1bf594d7621fd7c6562bfd1abdab8e",
      "transactionType": "CALL",
      "contractName": null,
      "contractAddress": "0x9d7758927fe3e656ba2cf3e81695b1b2afe0d53a",
      "function": "mintNft(string)",
      "arguments": [
        "ipfs://QmQy4HcwBN9YmrmHxuTYByVgx1Ayu8ZkkawZQqDFLYidpN"
      ],
      "transaction": {
        "from": "0x25bbe47dfda88aa7bf153110736633d0c344b3e2",
        "to": "0x9d7758927fe3e656ba2cf3e81695b1b2afe0d53a",
        "gas": "0x2f28b",
        "value": "0x0",
        "input": "0xda86f4a900000000000000000000000000000000000000000000000000000000000000200000000000000000000000000000000000000000000000000000000000000035697066733a2f2f516d517934486377424e39596d726d4878755459427956677831417975385a6b6b61775a517144464c596964704e0000000000000000000000",
        "nonce": "0x1",
        "chainId": "0x13882"
      },
      "additionalContracts": [],
      "isFixedGasLimit": false
    }
  ],
  "receipts": [
    {
      "status": "0x1",
      "cumulativeGasUsed": "0x3abb1",
      "logs": [
        {
          "address": "0x9d7758927fe3e656ba2cf3e81695b1b2afe0d53a",
          "topics": [
            "0xddf252ad1be2c89b69c2b068fc378daa952ba7f163c4a11628f55a4df523b3ef",
            "0x0000000000000000000000000000000000000000000000000000000000000000",
            "0x00000000000000000000000025bbe47dfda88aa7bf153110736633d0c344b3e2",
            "0x0000000000000000000000000000000000000000000000000000000000000000"
          ],
          "data": "0x",
          "blockHash": "0x8ee12e0c2425c2d803a5981e5dc455fab3ccc0be4a05dc01a38e5dbac9f726f4",
          "blockNumber": "0x140a1ea",
          "transactionHash": "0x97238c3525f2dc756ebc24fff6275f067c1bf594d7621fd7c6562bfd1abdab8e",
          "transactionIndex": "0x1",
          "logIndex": "0x2",
          "removed": false
        },
        {
          "address": "0x0000000000000000000000000000000000001010",
          "topics": [
            "0x4dfe1bbbcf077ddc3e01291eea2d5c70c2b422b415d95645b9adcfd678cb1d63",
            "0x0000000000000000000000000000000000000000000000000000000000001010",
            "0x00000000000000000000000025bbe47dfda88aa7bf153110736633d0c344b3e2",
            "0x000000000000000000000000915a2284d28bd93de7d6f31173b981204bb666e6"
          ],
          "data": "0x0000000000000000000000000000000000000000000000000017db086d573c4000000000000000000000000000000000000000000000000000600d628c7bddc20000000000000000000000000000000000000000000007c30f9baf0b84f763380000000000000000000000000000000000000000000000000048325a1f24a1820000000000000000000000000000000000000000000007c30fb38a13f24e9f78",
          "blockHash": "0x8ee12e0c2425c2d803a5981e5dc455fab3ccc0be4a05dc01a38e5dbac9f726f4",
          "blockNumber": "0x140a1ea",
          "transactionHash": "0x97238c3525f2dc756ebc24fff6275f067c1bf594d7621fd7c6562bfd1abdab8e",
          "transactionIndex": "0x1",
          "logIndex": "0x3",
          "removed": false
        }
      ],
      "logsBloom": "0x00000000000000000010000000000000000000000000000000000000000000000000000000010000000000000000000000008000000000000000000000000000008000000000800000000008000000800000000000000000000100000000008000000000020000000000000000000800000000000000000080000010000000000000000000000000000000200000000001000000000000000000000000000000200000000000000000000000000000000000000000000000000000000000004000000002000000000001000000000000000002000000000000100000000020000000000000000000000000000000000000000000400000000000000000100000",
      "type": "0x2",
      "transactionHash": "0x97238c3525f2dc756ebc24fff6275f067c1bf594d7621fd7c6562bfd1abdab8e",
      "transactionIndex": "0x1",
      "blockHash": "0x8ee12e0c2425c2d803a5981e5dc455fab3ccc0be4a05dc01a38e5dbac9f726f4",
      "blockNumber": "0x140a1ea",
      "gasUsed": "0x22247",
      "effectiveGasPrice": "0xb2deac1cf",
      "from": "0x25bbe47dfda88aa7bf153110736633d0c344b3e2",
      "to": "0x9d7758927fe3e656ba2cf3e81695b1b2afe0d53a",
      "contractAddress": null
    }
  ],
  "libraries": [],
  "pending": [],
  "returns": {},
  "timestamp": 1745845077,
  "chain": 80002,
  "commit": "23f3863"
}