{
  "transactions": [
    {
      "hash": "0xb2fcb6059ab45484446e40d0d64df4ef7d49e0ac6fbdf29a1e6e7606ba335a68",
      "transactionType": "CALL",
      "contractName": null,
      "contractAddress": "0x64db048cf74fdce366fc5143869625a0fedc8d14",
      "function": "mintNft(string)",
      "arguments": [
        "ipfs://QmQy4HcwBN9YmrmHxuTYByVgx1Ayu8ZkkawZQqDFLYidpN"
      ],
      "transaction": {
        "from": "0x25bbe47dfda88aa7bf153110736633d0c344b3e2",
        "to": "0x64db048cf74fdce366fc5143869625a0fedc8d14",
        "gas": "0x2f28b",
        "value": "0x0",
        "input": "0xda86f4a900000000000000000000000000000000000000000000000000000000000000200000000000000000000000000000000000000000000000000000000000000035697066733a2f2f516d517934486377424e39596d726d4878755459427956677831417975385a6b6b61775a517144464c596964704e0000000000000000000000",
        "nonce": "0x25",
        "chainId": "0xaa36a7"
      },
      "additionalContracts": [],
      "isFixedGasLimit": false
    }
  ],
  "receipts": [
    {
      "status": "0x1",
      "cumulativeGasUsed": "0x6deda9",
      "logs": [
        {
          "address": "0x64db048cf74fdce366fc5143869625a0fedc8d14",
          "topics": [
            "0xddf252ad1be2c89b69c2b068fc378daa952ba7f163c4a11628f55a4df523b3ef",
            "0x0000000000000000000000000000000000000000000000000000000000000000",
            "0x00000000000000000000000025bbe47dfda88aa7bf153110736633d0c344b3e2",
            "0x0000000000000000000000000000000000000000000000000000000000000000"
          ],
          "data": "0x",
          "blockHash": "0x269fe0a24bbb541e7aa3a492fec03320e668bc73fe07a7339ae4477c6a0f80f5",
          "blockNumber": "0x7d524f",
          "blockTimestamp": "0x680f8038",
          "transactionHash": "0xb2fcb6059ab45484446e40d0d64df4ef7d49e0ac6fbdf29a1e6e7606ba335a68",
          "transactionIndex": "0x3c",
          "logIndex": "0x69",
          "removed": false
        }
      ],
      "logsBloom": "0x00000000000000000000000000000000000000000000000000000000000000000000000000010000000800000000000000000000000000000000000000000000000000000000000000000008000000000040000000000000000000000000008000000000020000000000000000000800000000000000000000000010000000000000000000000000000000200000000000000000000000000000000000000000000000000000000000000000000000000000000000000000000000020000000000000002000000000000000000000000000000000000000000000000000020000000000000000000000000000000000000000000000000000000000000000000",
      "type": "0x2",
      "transactionHash": "0xb2fcb6059ab45484446e40d0d64df4ef7d49e0ac6fbdf29a1e6e7606ba335a68",
      "transactionIndex": "0x3c",
      "blockHash": "0x269fe0a24bbb541e7aa3a492fec03320e668bc73fe07a7339ae4477c6a0f80f5",
      "blockNumber": "0x7d524f",
      "gasUsed": "0x22247",
      "effectiveGasPrice": "0x73b78e6a3",
      "from": "0x25bbe47dfda88aa7bf153110736633d0c344b3e2",
      "to": "0x64db048cf74fdce366fc5143869625a0fedc8d14",
      "contractAddress": null
    }
  ],
  "libraries": [],
  "pending": [],
  "returns": {},
  "timestamp": 1745846329,
  "chain": 11155111,
  "commit": "23f3863"
}